{
  "_format": "hh-sol-artifact-1",
  "contractName": "MyEpicNFT",
  "sourceName": "contracts/MyEpicNFT.sol",
  "abi": [
    {
      "inputs": [],
      "stateMutability": "nonpayable",
      "type": "constructor"
    },
    {
      "anonymous": false,
      "inputs": [
        {
          "indexed": true,
          "internalType": "address",
          "name": "owner",
          "type": "address"
        },
        {
          "indexed": true,
          "internalType": "address",
          "name": "approved",
          "type": "address"
        },
        {
          "indexed": true,
          "internalType": "uint256",
          "name": "tokenId",
          "type": "uint256"
        }
      ],
      "name": "Approval",
      "type": "event"
    },
    {
      "anonymous": false,
      "inputs": [
        {
          "indexed": true,
          "internalType": "address",
          "name": "owner",
          "type": "address"
        },
        {
          "indexed": true,
          "internalType": "address",
          "name": "operator",
          "type": "address"
        },
        {
          "indexed": false,
          "internalType": "bool",
          "name": "approved",
          "type": "bool"
        }
      ],
      "name": "ApprovalForAll",
      "type": "event"
    },
    {
      "anonymous": false,
      "inputs": [
        {
          "indexed": false,
          "internalType": "address",
          "name": "sender",
          "type": "address"
        },
        {
          "indexed": false,
          "internalType": "uint256",
          "name": "tokenId",
          "type": "uint256"
        }
      ],
      "name": "NewNFTMinted",
      "type": "event"
    },
    {
      "anonymous": false,
      "inputs": [
        {
          "indexed": true,
          "internalType": "address",
          "name": "from",
          "type": "address"
        },
        {
          "indexed": true,
          "internalType": "address",
          "name": "to",
          "type": "address"
        },
        {
          "indexed": true,
          "internalType": "uint256",
          "name": "tokenId",
          "type": "uint256"
        }
      ],
      "name": "Transfer",
      "type": "event"
    },
    {
      "inputs": [
        {
          "internalType": "address",
          "name": "to",
          "type": "address"
        },
        {
          "internalType": "uint256",
          "name": "tokenId",
          "type": "uint256"
        }
      ],
      "name": "approve",
      "outputs": [],
      "stateMutability": "nonpayable",
      "type": "function"
    },
    {
      "inputs": [
        {
          "internalType": "address",
          "name": "owner",
          "type": "address"
        }
      ],
      "name": "balanceOf",
      "outputs": [
        {
          "internalType": "uint256",
          "name": "",
          "type": "uint256"
        }
      ],
      "stateMutability": "view",
      "type": "function"
    },
    {
      "inputs": [
        {
          "internalType": "uint256",
          "name": "tokenId",
          "type": "uint256"
        }
      ],
      "name": "getApproved",
      "outputs": [
        {
          "internalType": "address",
          "name": "",
          "type": "address"
        }
      ],
      "stateMutability": "view",
      "type": "function"
    },
    {
      "inputs": [],
      "name": "getTotalNFTCount",
      "outputs": [
        {
          "internalType": "uint256",
          "name": "",
          "type": "uint256"
        }
      ],
      "stateMutability": "view",
      "type": "function"
    },
    {
      "inputs": [
        {
          "internalType": "address",
          "name": "owner",
          "type": "address"
        },
        {
          "internalType": "address",
          "name": "operator",
          "type": "address"
        }
      ],
      "name": "isApprovedForAll",
      "outputs": [
        {
          "internalType": "bool",
          "name": "",
          "type": "bool"
        }
      ],
      "stateMutability": "view",
      "type": "function"
    },
    {
      "inputs": [],
      "name": "makeAnEpicNFT",
      "outputs": [],
      "stateMutability": "nonpayable",
      "type": "function"
    },
    {
      "inputs": [],
      "name": "name",
      "outputs": [
        {
          "internalType": "string",
          "name": "",
          "type": "string"
        }
      ],
      "stateMutability": "view",
      "type": "function"
    },
    {
      "inputs": [
        {
          "internalType": "uint256",
          "name": "tokenId",
          "type": "uint256"
        }
      ],
      "name": "ownerOf",
      "outputs": [
        {
          "internalType": "address",
          "name": "",
          "type": "address"
        }
      ],
      "stateMutability": "view",
      "type": "function"
    },
    {
      "inputs": [
        {
          "internalType": "uint256",
          "name": "tokenId",
          "type": "uint256"
        }
      ],
      "name": "pickRandomColor",
      "outputs": [
        {
          "internalType": "string",
          "name": "",
          "type": "string"
        }
      ],
      "stateMutability": "view",
      "type": "function"
    },
    {
      "inputs": [
        {
          "internalType": "uint256",
          "name": "tokenId",
          "type": "uint256"
        }
      ],
      "name": "pickRandomFirstWord",
      "outputs": [
        {
          "internalType": "string",
          "name": "",
          "type": "string"
        }
      ],
      "stateMutability": "view",
      "type": "function"
    },
    {
      "inputs": [
        {
          "internalType": "uint256",
          "name": "tokenId",
          "type": "uint256"
        }
      ],
      "name": "pickRandomSecondWord",
      "outputs": [
        {
          "internalType": "string",
          "name": "",
          "type": "string"
        }
      ],
      "stateMutability": "view",
      "type": "function"
    },
    {
      "inputs": [
        {
          "internalType": "uint256",
          "name": "tokenId",
          "type": "uint256"
        }
      ],
      "name": "pickRandomThirdWord",
      "outputs": [
        {
          "internalType": "string",
          "name": "",
          "type": "string"
        }
      ],
      "stateMutability": "view",
      "type": "function"
    },
    {
      "inputs": [
        {
          "internalType": "address",
          "name": "from",
          "type": "address"
        },
        {
          "internalType": "address",
          "name": "to",
          "type": "address"
        },
        {
          "internalType": "uint256",
          "name": "tokenId",
          "type": "uint256"
        }
      ],
      "name": "safeTransferFrom",
      "outputs": [],
      "stateMutability": "nonpayable",
      "type": "function"
    },
    {
      "inputs": [
        {
          "internalType": "address",
          "name": "from",
          "type": "address"
        },
        {
          "internalType": "address",
          "name": "to",
          "type": "address"
        },
        {
          "internalType": "uint256",
          "name": "tokenId",
          "type": "uint256"
        },
        {
          "internalType": "bytes",
          "name": "_data",
          "type": "bytes"
        }
      ],
      "name": "safeTransferFrom",
      "outputs": [],
      "stateMutability": "nonpayable",
      "type": "function"
    },
    {
      "inputs": [
        {
          "internalType": "address",
          "name": "operator",
          "type": "address"
        },
        {
          "internalType": "bool",
          "name": "approved",
          "type": "bool"
        }
      ],
      "name": "setApprovalForAll",
      "outputs": [],
      "stateMutability": "nonpayable",
      "type": "function"
    },
    {
      "inputs": [
        {
          "internalType": "bytes4",
          "name": "interfaceId",
          "type": "bytes4"
        }
      ],
      "name": "supportsInterface",
      "outputs": [
        {
          "internalType": "bool",
          "name": "",
          "type": "bool"
        }
      ],
      "stateMutability": "view",
      "type": "function"
    },
    {
      "inputs": [],
      "name": "symbol",
      "outputs": [
        {
          "internalType": "string",
          "name": "",
          "type": "string"
        }
      ],
      "stateMutability": "view",
      "type": "function"
    },
    {
      "inputs": [
        {
          "internalType": "uint256",
          "name": "tokenId",
          "type": "uint256"
        }
      ],
      "name": "tokenURI",
      "outputs": [
        {
          "internalType": "string",
          "name": "",
          "type": "string"
        }
      ],
      "stateMutability": "view",
      "type": "function"
    },
    {
      "inputs": [
        {
          "internalType": "address",
          "name": "from",
          "type": "address"
        },
        {
          "internalType": "address",
          "name": "to",
          "type": "address"
        },
        {
          "internalType": "uint256",
          "name": "tokenId",
          "type": "uint256"
        }
      ],
      "name": "transferFrom",
      "outputs": [],
      "stateMutability": "nonpayable",
      "type": "function"
    }
  ],
  "bytecode": "0x608060405260405180610100016040528060d38152602001620058cc60d39139600890805190602001906200003692919062001943565b506040518060800160405280605681526020016200599f60569139600990805190602001906200006892919062001943565b50604051806101e001604052806040518060400160405280600781526020017f41636164656d790000000000000000000000000000000000000000000000000081525081526020016040518060400160405280600881526020017f4368656d7465636800000000000000000000000000000000000000000000000081525081526020016040518060400160405280600981526020017f436c6f636b776f726b000000000000000000000000000000000000000000000081525081526020016040518060400160405280600681526020017f437564646c79000000000000000000000000000000000000000000000000000081525081526020016040518060400160405280600881526020017f456e666f7263657200000000000000000000000000000000000000000000000081525081526020016040518060400160405280600781526020017f476c7574746f6e0000000000000000000000000000000000000000000000000081525081526020016040518060400160405280600881526020017f496d70657269616c00000000000000000000000000000000000000000000000081525081526020016040518060400160405280600981526020017f4d657263656e617279000000000000000000000000000000000000000000000081525081526020016040518060400160405280600681526020017f4d7574616e74000000000000000000000000000000000000000000000000000081525081526020016040518060400160405280600581526020017f536372617000000000000000000000000000000000000000000000000000000081525081526020016040518060400160405280600681526020017f536973746572000000000000000000000000000000000000000000000000000081525081526020016040518060400160405280600981526020017f536f6369616c697465000000000000000000000000000000000000000000000081525081526020016040518060400160405280600981526020017f53796e646963617465000000000000000000000000000000000000000000000081525081526020016040518060400160405280600681526020017f596f72646c65000000000000000000000000000000000000000000000000000081525081526020016040518060400160405280600b81526020017f596f72646c652d4c6f7264000000000000000000000000000000000000000000815250815250600a90600f620003fa929190620019d4565b50604051806101a001604052806040518060400160405280600881526020017f417263616e69737400000000000000000000000000000000000000000000000081525081526020016040518060400160405280600881526020017f417373617373696e00000000000000000000000000000000000000000000000081525081526020016040518060400160405280600981526020017f426f64796775617264000000000000000000000000000000000000000000000081525081526020016040518060400160405280600781526020017f427275697365720000000000000000000000000000000000000000000000000081525081526020016040518060400160405280600a81526020017f4368616c6c656e6765720000000000000000000000000000000000000000000081525081526020016040518060400160405280600881526020017f436f6c6f7373757300000000000000000000000000000000000000000000000081525081526020016040518060400160405280600981526020017f456e6368616e746572000000000000000000000000000000000000000000000081525081526020016040518060400160405280600981526020017f496e6e6f7661746f72000000000000000000000000000000000000000000000081525081526020016040518060400160405280600981526020017f50726f746563746f72000000000000000000000000000000000000000000000081525081526020016040518060400160405280600781526020017f5363686f6c61720000000000000000000000000000000000000000000000000081525081526020016040518060400160405280600681526020017f536e69706572000000000000000000000000000000000000000000000000000081525081526020016040518060400160405280600b81526020017f5472616e73666f726d657200000000000000000000000000000000000000000081525081526020016040518060400160405280600881526020017f5477696e73686f74000000000000000000000000000000000000000000000000815250815250600b90600d6200071692919062001a3b565b506040518061076001604052806040518060400160405280600581526020017f416b616c6900000000000000000000000000000000000000000000000000000081525081526020016040518060400160405280600a81526020017f426c69747a6372616e6b0000000000000000000000000000000000000000000081525081526020016040518060400160405280600581526020017f427261756d00000000000000000000000000000000000000000000000000000081525081526020016040518060400160405280600781526020017f436169746c796e0000000000000000000000000000000000000000000000000081525081526020016040518060400160405280600781526020017f43616d696c6c650000000000000000000000000000000000000000000000000081525081526020016040518060400160405280600781526020017f43686f676174680000000000000000000000000000000000000000000000000081525081526020016040518060400160405280600681526020017f446172697573000000000000000000000000000000000000000000000000000081525081526020016040518060400160405280600781526020017f44724d756e646f0000000000000000000000000000000000000000000000000081525081526020016040518060400160405280600481526020017f456b6b6f0000000000000000000000000000000000000000000000000000000081525081526020016040518060400160405280600681526020017f457a7265616c000000000000000000000000000000000000000000000000000081525081526020016040518060400160405280600581526020017f46696f726100000000000000000000000000000000000000000000000000000081525081526020016040518060400160405280600581526020017f47616c696f00000000000000000000000000000000000000000000000000000081525081526020016040518060400160405280600981526020017f47616e67706c616e6b000000000000000000000000000000000000000000000081525081526020016040518060400160405280600581526020017f476172656e00000000000000000000000000000000000000000000000000000081525081526020016040518060400160405280600681526020017f477261766573000000000000000000000000000000000000000000000000000081525081526020016040518060400160405280600c81526020017f4865696d657264696e676572000000000000000000000000000000000000000081525081526020016040518060400160405280600681526020017f496c6c616f69000000000000000000000000000000000000000000000000000081525081526020016040518060400160405280600581526020017f4a616e6e6100000000000000000000000000000000000000000000000000000081525081526020016040518060400160405280600581526020017f4a6179636500000000000000000000000000000000000000000000000000000081525081526020016040518060400160405280600481526020017f4a68696e0000000000000000000000000000000000000000000000000000000081525081526020016040518060400160405280600481526020017f4a696e780000000000000000000000000000000000000000000000000000000081525081526020016040518060400160405280600581526020017f4b6169736100000000000000000000000000000000000000000000000000000081525081526020016040518060400160405280600881526020017f4b6173736164696e00000000000000000000000000000000000000000000000081525081526020016040518060400160405280600881526020017f4b61746172696e6100000000000000000000000000000000000000000000000081525081526020016040518060400160405280600681526020017f4b6f674d6177000000000000000000000000000000000000000000000000000081525081526020016040518060400160405280600581526020017f4c656f6e6100000000000000000000000000000000000000000000000000000081525081526020016040518060400160405280600981526020017f4c697373616e647261000000000000000000000000000000000000000000000081525081526020016040518060400160405280600481526020017f4c756c750000000000000000000000000000000000000000000000000000000081525081526020016040518060400160405280600381526020017f4c7578000000000000000000000000000000000000000000000000000000000081525081526020016040518060400160405280600881526020017f4d616c7a6168617200000000000000000000000000000000000000000000000081525081526020016040518060400160405280600b81526020017f4d697373466f7274756e6500000000000000000000000000000000000000000081525081526020016040518060400160405280600781526020017f4f7269616e6e610000000000000000000000000000000000000000000000000081525081526020016040518060400160405280600581526020017f506f70707900000000000000000000000000000000000000000000000000000081525081526020016040518060400160405280600581526020017f5175696e6e00000000000000000000000000000000000000000000000000000081525081526020016040518060400160405280600681526020017f53616d697261000000000000000000000000000000000000000000000000000081525081526020016040518060400160405280600981526020017f536572617068696e65000000000000000000000000000000000000000000000081525081526020016040518060400160405280600581526020017f536861636f00000000000000000000000000000000000000000000000000000081525081526020016040518060400160405280600681526020017f53696e676564000000000000000000000000000000000000000000000000000081525081526020016040518060400160405280600481526020017f53696f6e0000000000000000000000000000000000000000000000000000000081525081526020016040518060400160405280600581526020017f537761696e00000000000000000000000000000000000000000000000000000081525081526020016040518060400160405280600981526020017f5461686d4b656e6368000000000000000000000000000000000000000000000081525081526020016040518060400160405280600581526020017f54616c6f6e00000000000000000000000000000000000000000000000000000081525081526020016040518060400160405280600581526020017f546172696300000000000000000000000000000000000000000000000000000081525081526020016040518060400160405280600881526020017f5472697374616e6100000000000000000000000000000000000000000000000081525081526020016040518060400160405280600781526020017f5472756e646c650000000000000000000000000000000000000000000000000081525081526020016040518060400160405280600b81526020017f547769737465644661746500000000000000000000000000000000000000000081525081526020016040518060400160405280600681526020017f547769746368000000000000000000000000000000000000000000000000000081525081526020016040518060400160405280600581526020017f5572676f7400000000000000000000000000000000000000000000000000000081525081526020016040518060400160405280600681526020017f566569676172000000000000000000000000000000000000000000000000000081525081526020016040518060400160405280600381526020017f566578000000000000000000000000000000000000000000000000000000000081525081526020016040518060400160405280600281526020017f566900000000000000000000000000000000000000000000000000000000000081525081526020016040518060400160405280600681526020017f566963746f72000000000000000000000000000000000000000000000000000081525081526020016040518060400160405280600781526020017f5761727769636b0000000000000000000000000000000000000000000000000081525081526020016040518060400160405280600481526020017f596f6e650000000000000000000000000000000000000000000000000000000081525081526020016040518060400160405280600581526020017f5975756d6900000000000000000000000000000000000000000000000000000081525081526020016040518060400160405280600381526020017f5a6163000000000000000000000000000000000000000000000000000000000081525081526020016040518060400160405280600581526020017f5a6967677300000000000000000000000000000000000000000000000000000081525081526020016040518060400160405280600681526020017f5a696c65616e000000000000000000000000000000000000000000000000000081525081526020016040518060400160405280600481526020017f5a79726100000000000000000000000000000000000000000000000000000000815250815250600c90603b620014cc92919062001aa2565b506040518061016001604052806040518060400160405280600481526020017f676f6c640000000000000000000000000000000000000000000000000000000081525081526020016040518060400160405280600781526020017f6372696d736f6e0000000000000000000000000000000000000000000000000081525081526020016040518060400160405280600a81526020017f626c756576696f6c65740000000000000000000000000000000000000000000081525081526020016040518060400160405280600b81526020017f64656570736b79626c756500000000000000000000000000000000000000000081525081526020016040518060400160405280600881526020017f736561677265656e00000000000000000000000000000000000000000000000081525081526020016040518060400160405280600e81526020017f6461726b6f6c697665677265656e00000000000000000000000000000000000081525081526020016040518060400160405280600981526020017f726f79616c626c7565000000000000000000000000000000000000000000000081525081526020016040518060400160405280600681526020017f7369656e6e61000000000000000000000000000000000000000000000000000081525081526020016040518060400160405280600681526020017f746f6d61746f000000000000000000000000000000000000000000000000000081525081526020016040518060400160405280600981526020017f66697265627269636b000000000000000000000000000000000000000000000081525081526020016040518060400160405280600781526020017f64696d6772657900000000000000000000000000000000000000000000000000815250815250600d90600b6200177292919062001b09565b506032600e553480156200178557600080fd5b506040518060400160405280601081526020017f5465616d666967687454616374696373000000000000000000000000000000008152506040518060400160405280600381526020017f544654000000000000000000000000000000000000000000000000000000000081525081600090805190602001906200180a92919062001943565b5080600190805190602001906200182392919062001943565b505050620018716040518060400160405280601f81526020017f54686973206973206d79205465616d666967687454616374696373204e4654008152506200187760201b620012a31760201c565b62001d2a565b62001917816040516024016200188e919062001c3e565b6040516020818303038152906040527f41304fac000000000000000000000000000000000000000000000000000000007bffffffffffffffffffffffffffffffffffffffffffffffffffffffff19166020820180517bffffffffffffffffffffffffffffffffffffffffffffffffffffffff83818316178352505050506200191a60201b60201c565b50565b60008151905060006a636f6e736f6c652e6c6f679050602083016000808483855afa5050505050565b828054620019519062001cb4565b90600052602060002090601f016020900481019282620019755760008555620019c1565b82601f106200199057805160ff1916838001178555620019c1565b82800160010185558215620019c1579182015b82811115620019c0578251825591602001919060010190620019a3565b5b509050620019d0919062001b70565b5090565b82805482825590600052602060002090810192821562001a28579160200282015b8281111562001a2757825182908051906020019062001a1692919062001943565b5091602001919060010190620019f5565b5b50905062001a37919062001b8f565b5090565b82805482825590600052602060002090810192821562001a8f579160200282015b8281111562001a8e57825182908051906020019062001a7d92919062001943565b509160200191906001019062001a5c565b5b50905062001a9e919062001b8f565b5090565b82805482825590600052602060002090810192821562001af6579160200282015b8281111562001af557825182908051906020019062001ae492919062001943565b509160200191906001019062001ac3565b5b50905062001b05919062001b8f565b5090565b82805482825590600052602060002090810192821562001b5d579160200282015b8281111562001b5c57825182908051906020019062001b4b92919062001943565b509160200191906001019062001b2a565b5b50905062001b6c919062001b8f565b5090565b5b8082111562001b8b57600081600090555060010162001b71565b5090565b5b8082111562001bb3576000818162001ba9919062001bb7565b5060010162001b90565b5090565b50805462001bc59062001cb4565b6000825580601f1062001bd9575062001bfa565b601f01602090049060005260206000209081019062001bf9919062001b70565b5b50565b600062001c0a8262001c62565b62001c16818562001c6d565b935062001c2881856020860162001c7e565b62001c338162001d19565b840191505092915050565b6000602082019050818103600083015262001c5a818462001bfd565b905092915050565b600081519050919050565b600082825260208201905092915050565b60005b8381101562001c9e57808201518184015260208101905062001c81565b8381111562001cae576000848401525b50505050565b6000600282049050600182168062001ccd57607f821691505b6020821081141562001ce45762001ce362001cea565b5b50919050565b7f4e487b7100000000000000000000000000000000000000000000000000000000600052602260045260246000fd5b6000601f19601f8301169050919050565b613b928062001d3a6000396000f3fe608060405234801561001057600080fd5b50600436106101215760003560e01c806370a08231116100ad578063bc50c9c111610071578063bc50c9c11461033e578063c575757a1461035c578063c87b56dd1461038c578063de9d132f146103bc578063e985e9c5146103c657610121565b806370a082311461028857806395d89b41146102b8578063a22cb465146102d6578063b187301f146102f2578063b88d4fde1461032257610121565b806323b872dd116100f457806323b872dd146101c05780632de38d68146101dc57806342842e0e1461020c578063514dc8c6146102285780636352211e1461025857610121565b806301ffc9a71461012657806306fdde0314610156578063081812fc14610174578063095ea7b3146101a4575b600080fd5b610140600480360381019061013b91906126a3565b6103f6565b60405161014d91906133fe565b60405180910390f35b61015e6104d8565b60405161016b9190613419565b60405180910390f35b61018e600480360381019061018991906126f5565b61056a565b60405161019b919061336e565b60405180910390f35b6101be60048036038101906101b99190612667565b6105ef565b005b6101da60048036038101906101d59190612561565b610707565b005b6101f660048036038101906101f191906126f5565b610767565b6040516102039190613419565b60405180910390f35b61022660048036038101906102219190612561565b610887565b005b610242600480360381019061023d91906126f5565b6108a7565b60405161024f9190613419565b60405180910390f35b610272600480360381019061026d91906126f5565b6109c7565b60405161027f919061336e565b60405180910390f35b6102a2600480360381019061029d91906124fc565b610a79565b6040516102af9190613679565b60405180910390f35b6102c0610b31565b6040516102cd9190613419565b60405180910390f35b6102f060048036038101906102eb919061262b565b610bc3565b005b61030c600480360381019061030791906126f5565b610bd9565b6040516103199190613419565b60405180910390f35b61033c600480360381019061033791906125b0565b610cf9565b005b610346610d5b565b6040516103539190613679565b60405180910390f35b610376600480360381019061037191906126f5565b610d6c565b6040516103839190613419565b60405180910390f35b6103a660048036038101906103a191906126f5565b610e8c565b6040516103b39190613419565b60405180910390f35b6103c4610fde565b005b6103e060048036038101906103db9190612525565b61120f565b6040516103ed91906133fe565b60405180910390f35b60007f80ac58cd000000000000000000000000000000000000000000000000000000007bffffffffffffffffffffffffffffffffffffffffffffffffffffffff1916827bffffffffffffffffffffffffffffffffffffffffffffffffffffffff191614806104c157507f5b5e139f000000000000000000000000000000000000000000000000000000007bffffffffffffffffffffffffffffffffffffffffffffffffffffffff1916827bffffffffffffffffffffffffffffffffffffffffffffffffffffffff1916145b806104d157506104d08261133c565b5b9050919050565b6060600080546104e790613918565b80601f016020809104026020016040519081016040528092919081815260200182805461051390613918565b80156105605780601f1061053557610100808354040283529160200191610560565b820191906000526020600020905b81548152906001019060200180831161054357829003601f168201915b5050505050905090565b6000610575826113a6565b6105b4576040517f08c379a00000000000000000000000000000000000000000000000000000000081526004016105ab906135d9565b60405180910390fd5b6004600083815260200190815260200160002060009054906101000a900473ffffffffffffffffffffffffffffffffffffffff169050919050565b60006105fa826109c7565b90508073ffffffffffffffffffffffffffffffffffffffff168373ffffffffffffffffffffffffffffffffffffffff16141561066b576040517f08c379a000000000000000000000000000000000000000000000000000000000815260040161066290613639565b60405180910390fd5b8073ffffffffffffffffffffffffffffffffffffffff1661068a611412565b73ffffffffffffffffffffffffffffffffffffffff1614806106b957506106b8816106b3611412565b61120f565b5b6106f8576040517f08c379a00000000000000000000000000000000000000000000000000000000081526004016106ef90613519565b60405180910390fd5b610702838361141a565b505050565b610718610712611412565b826114d3565b610757576040517f08c379a000000000000000000000000000000000000000000000000000000000815260040161074e90613659565b60405180910390fd5b6107628383836115b1565b505050565b6060600061079d426107788561180d565b6040516020016107899291906132e6565b6040516020818303038152906040526119ba565b9050600a80549050816107b0919061399d565b9050600a81815481106107ec577f4e487b7100000000000000000000000000000000000000000000000000000000600052603260045260246000fd5b90600052602060002001805461080190613918565b80601f016020809104026020016040519081016040528092919081815260200182805461082d90613918565b801561087a5780601f1061084f5761010080835404028352916020019161087a565b820191906000526020600020905b81548152906001019060200180831161085d57829003601f168201915b5050505050915050919050565b6108a283838360405180602001604052806000815250610cf9565b505050565b606060006108dd426108b88561180d565b6040516020016108c992919061333b565b6040516020818303038152906040526119ba565b9050600d80549050816108f0919061399d565b9050600d818154811061092c577f4e487b7100000000000000000000000000000000000000000000000000000000600052603260045260246000fd5b90600052602060002001805461094190613918565b80601f016020809104026020016040519081016040528092919081815260200182805461096d90613918565b80156109ba5780601f1061098f576101008083540402835291602001916109ba565b820191906000526020600020905b81548152906001019060200180831161099d57829003601f168201915b5050505050915050919050565b6000806002600084815260200190815260200160002060009054906101000a900473ffffffffffffffffffffffffffffffffffffffff169050600073ffffffffffffffffffffffffffffffffffffffff168173ffffffffffffffffffffffffffffffffffffffff161415610a70576040517f08c379a0000000000000000000000000000000000000000000000000000000008152600401610a6790613559565b60405180910390fd5b80915050919050565b60008073ffffffffffffffffffffffffffffffffffffffff168273ffffffffffffffffffffffffffffffffffffffff161415610aea576040517f08c379a0000000000000000000000000000000000000000000000000000000008152600401610ae190613539565b60405180910390fd5b600360008373ffffffffffffffffffffffffffffffffffffffff1673ffffffffffffffffffffffffffffffffffffffff168152602001908152602001600020549050919050565b606060018054610b4090613918565b80601f0160208091040260200160405190810160405280929190818152602001828054610b6c90613918565b8015610bb95780601f10610b8e57610100808354040283529160200191610bb9565b820191906000526020600020905b815481529060010190602001808311610b9c57829003601f168201915b5050505050905090565b610bd5610bce611412565b83836119ed565b5050565b60606000610c0f42610bea8561180d565b604051602001610bfb92919061326e565b6040516020818303038152906040526119ba565b9050600b8054905081610c22919061399d565b9050600b8181548110610c5e577f4e487b7100000000000000000000000000000000000000000000000000000000600052603260045260246000fd5b906000526020600020018054610c7390613918565b80601f0160208091040260200160405190810160405280929190818152602001828054610c9f90613918565b8015610cec5780601f10610cc157610100808354040283529160200191610cec565b820191906000526020600020905b815481529060010190602001808311610ccf57829003601f168201915b5050505050915050919050565b610d0a610d04611412565b836114d3565b610d49576040517f08c379a0000000000000000000000000000000000000000000000000000000008152600401610d4090613659565b60405180910390fd5b610d5584848484611b5a565b50505050565b6000610d676007611bb6565b905090565b60606000610da242610d7d8561180d565b604051602001610d8e92919061323b565b6040516020818303038152906040526119ba565b9050600c8054905081610db5919061399d565b9050600c8181548110610df1577f4e487b7100000000000000000000000000000000000000000000000000000000600052603260045260246000fd5b906000526020600020018054610e0690613918565b80601f0160208091040260200160405190810160405280929190818152602001828054610e3290613918565b8015610e7f5780601f10610e5457610100808354040283529160200191610e7f565b820191906000526020600020905b815481529060010190602001808311610e6257829003601f168201915b5050505050915050919050565b6060610e97826113a6565b610ed6576040517f08c379a0000000000000000000000000000000000000000000000000000000008152600401610ecd906135b9565b60405180910390fd5b6000600660008481526020019081526020016000208054610ef690613918565b80601f0160208091040260200160405190810160405280929190818152602001828054610f2290613918565b8015610f6f5780601f10610f4457610100808354040283529160200191610f6f565b820191906000526020600020905b815481529060010190602001808311610f5257829003601f168201915b505050505090506000610f80611bc4565b9050600081511415610f96578192505050610fd9565b600082511115610fcb578082604051602001610fb392919061317b565b60405160208183030381529060405292505050610fd9565b610fd484611bdb565b925050505b919050565b600e54610feb6007611bb6565b1115610ff657600080fd5b60006110026007611bb6565b9050600061100f82610767565b9050600061101c83610bd9565b9050600061102984610d6c565b90506000611036856108a7565b9050600084848460405160200161104f9392919061319f565b6040516020818303038152906040529050600060088360098460405160200161107b94939291906131d0565b604051602081830303815290604052905060006110c08361109b84611c82565b6040516020016110ac9291906132a1565b604051602081830303815290604052611c82565b90506000816040516020016110d59190613319565b60405160208183030381529060405290506111246040518060400160405280601581526020017f0a2d2d2d2d2d2d2d2d2d2d2d2d2d2d2d2d2d2d2d2d00000000000000000000008152506112a3565b61114c816040516020016111389190613219565b6040516020818303038152906040526112a3565b61118a6040518060400160405280601581526020017f2d2d2d2d2d2d2d2d2d2d2d2d2d2d2d2d2d2d2d2d0a00000000000000000000008152506112a3565b611194338a611e40565b61119e8982611e5e565b6111a86007611ed2565b6111cb604051806060016040528060258152602001613af8602591398a33611ee8565b7f1c05098ed1ff38e6238d2b1b04b2c7977d4c94ce651bda6473f9dba8dbf01da0338a6040516111fc9291906133d5565b60405180910390a1505050505050505050565b6000600560008473ffffffffffffffffffffffffffffffffffffffff1673ffffffffffffffffffffffffffffffffffffffff16815260200190815260200160002060008373ffffffffffffffffffffffffffffffffffffffff1673ffffffffffffffffffffffffffffffffffffffff16815260200190815260200160002060009054906101000a900460ff16905092915050565b611339816040516024016112b79190613419565b6040516020818303038152906040527f41304fac000000000000000000000000000000000000000000000000000000007bffffffffffffffffffffffffffffffffffffffffffffffffffffffff19166020820180517bffffffffffffffffffffffffffffffffffffffffffffffffffffffff8381831617835250505050611f87565b50565b60007f01ffc9a7000000000000000000000000000000000000000000000000000000007bffffffffffffffffffffffffffffffffffffffffffffffffffffffff1916827bffffffffffffffffffffffffffffffffffffffffffffffffffffffff1916149050919050565b60008073ffffffffffffffffffffffffffffffffffffffff166002600084815260200190815260200160002060009054906101000a900473ffffffffffffffffffffffffffffffffffffffff1673ffffffffffffffffffffffffffffffffffffffff1614159050919050565b600033905090565b816004600083815260200190815260200160002060006101000a81548173ffffffffffffffffffffffffffffffffffffffff021916908373ffffffffffffffffffffffffffffffffffffffff160217905550808273ffffffffffffffffffffffffffffffffffffffff1661148d836109c7565b73ffffffffffffffffffffffffffffffffffffffff167f8c5be1e5ebec7d5bd14f71427d1e84f3dd0314c0f7b2291e5b200ac8c7c3b92560405160405180910390a45050565b60006114de826113a6565b61151d576040517f08c379a0000000000000000000000000000000000000000000000000000000008152600401611514906134f9565b60405180910390fd5b6000611528836109c7565b90508073ffffffffffffffffffffffffffffffffffffffff168473ffffffffffffffffffffffffffffffffffffffff16148061159757508373ffffffffffffffffffffffffffffffffffffffff1661157f8461056a565b73ffffffffffffffffffffffffffffffffffffffff16145b806115a857506115a7818561120f565b5b91505092915050565b8273ffffffffffffffffffffffffffffffffffffffff166115d1826109c7565b73ffffffffffffffffffffffffffffffffffffffff1614611627576040517f08c379a000000000000000000000000000000000000000000000000000000000815260040161161e906135f9565b60405180910390fd5b600073ffffffffffffffffffffffffffffffffffffffff168273ffffffffffffffffffffffffffffffffffffffff161415611697576040517f08c379a000000000000000000000000000000000000000000000000000000000815260040161168e906134b9565b60405180910390fd5b6116a2838383611fb0565b6116ad60008261141a565b6001600360008573ffffffffffffffffffffffffffffffffffffffff1673ffffffffffffffffffffffffffffffffffffffff16815260200190815260200160002060008282546116fd919061382e565b925050819055506001600360008473ffffffffffffffffffffffffffffffffffffffff1673ffffffffffffffffffffffffffffffffffffffff1681526020019081526020016000206000828254611754919061374d565b92505081905550816002600083815260200190815260200160002060006101000a81548173ffffffffffffffffffffffffffffffffffffffff021916908373ffffffffffffffffffffffffffffffffffffffff160217905550808273ffffffffffffffffffffffffffffffffffffffff168473ffffffffffffffffffffffffffffffffffffffff167fddf252ad1be2c89b69c2b068fc378daa952ba7f163c4a11628f55a4df523b3ef60405160405180910390a4505050565b60606000821415611855576040518060400160405280600181526020017f300000000000000000000000000000000000000000000000000000000000000081525090506119b5565b600082905060005b600082146118875780806118709061394a565b915050600a8261188091906137a3565b915061185d565b60008167ffffffffffffffff8111156118c9577f4e487b7100000000000000000000000000000000000000000000000000000000600052604160045260246000fd5b6040519080825280601f01601f1916602001820160405280156118fb5781602001600182028036833780820191505090505b5090505b600085146119ae57600182611914919061382e565b9150600a85611923919061399d565b603061192f919061374d565b60f81b81838151811061196b577f4e487b7100000000000000000000000000000000000000000000000000000000600052603260045260246000fd5b60200101907effffffffffffffffffffffffffffffffffffffffffffffffffffffffffffff1916908160001a905350600a856119a791906137a3565b94506118ff565b8093505050505b919050565b6000816040516020016119cd9190613164565b6040516020818303038152906040528051906020012060001c9050919050565b8173ffffffffffffffffffffffffffffffffffffffff168373ffffffffffffffffffffffffffffffffffffffff161415611a5c576040517f08c379a0000000000000000000000000000000000000000000000000000000008152600401611a53906134d9565b60405180910390fd5b80600560008573ffffffffffffffffffffffffffffffffffffffff1673ffffffffffffffffffffffffffffffffffffffff16815260200190815260200160002060008473ffffffffffffffffffffffffffffffffffffffff1673ffffffffffffffffffffffffffffffffffffffff16815260200190815260200160002060006101000a81548160ff0219169083151502179055508173ffffffffffffffffffffffffffffffffffffffff168373ffffffffffffffffffffffffffffffffffffffff167f17307eab39ab6107e8899845ad3d59bd9653f200f220920489ca2b5937696c3183604051611b4d91906133fe565b60405180910390a3505050565b611b658484846115b1565b611b7184848484611fb5565b611bb0576040517f08c379a0000000000000000000000000000000000000000000000000000000008152600401611ba790613479565b60405180910390fd5b50505050565b600081600001549050919050565b606060405180602001604052806000815250905090565b6060611be6826113a6565b611c25576040517f08c379a0000000000000000000000000000000000000000000000000000000008152600401611c1c90613619565b60405180910390fd5b6000611c2f611bc4565b90506000815111611c4f5760405180602001604052806000815250611c7a565b80611c598461180d565b604051602001611c6a92919061317b565b6040516020818303038152906040525b915050919050565b60606000825190506000811415611cab5760405180602001604052806000815250915050611e3b565b60006003600283611cbc919061374d565b611cc691906137a3565b6004611cd291906137d4565b90506000602082611ce3919061374d565b67ffffffffffffffff811115611d22577f4e487b7100000000000000000000000000000000000000000000000000000000600052604160045260246000fd5b6040519080825280601f01601f191660200182016040528015611d545781602001600182028036833780820191505090505b5090506000604051806060016040528060408152602001613b1d604091399050600181016020830160005b86811015611df85760038101905062ffffff818a015116603f8160121c168401518060081b905060ff603f83600c1c1686015116810190508060081b905060ff603f8360061c1686015116810190508060081b905060ff603f831686015116810190508060e01b90508084526004840193505050611d7f565b506003860660018114611e125760028114611e2257611e2d565b613d3d60f01b6002830352611e2d565b603d60f81b60018303525b508484525050819450505050505b919050565b611e5a82826040518060200160405280600081525061214c565b5050565b611e67826113a6565b611ea6576040517f08c379a0000000000000000000000000000000000000000000000000000000008152600401611e9d90613579565b60405180910390fd5b80600660008481526020019081526020016000209080519060200190611ecd929190612388565b505050565b6001816000016000828254019250508190555050565b611f82838383604051602401611f009392919061343b565b6040516020818303038152906040527fe3849f79000000000000000000000000000000000000000000000000000000007bffffffffffffffffffffffffffffffffffffffffffffffffffffffff19166020820180517bffffffffffffffffffffffffffffffffffffffffffffffffffffffff8381831617835250505050611f87565b505050565b60008151905060006a636f6e736f6c652e6c6f679050602083016000808483855afa5050505050565b505050565b6000611fd68473ffffffffffffffffffffffffffffffffffffffff166121a7565b1561213f578373ffffffffffffffffffffffffffffffffffffffff1663150b7a02611fff611412565b8786866040518563ffffffff1660e01b81526004016120219493929190613389565b602060405180830381600087803b15801561203b57600080fd5b505af192505050801561206c57506040513d601f19601f8201168201806040525081019061206991906126cc565b60015b6120ef573d806000811461209c576040519150601f19603f3d011682016040523d82523d6000602084013e6120a1565b606091505b506000815114156120e7576040517f08c379a00000000000000000000000000000000000000000000000000000000081526004016120de90613479565b60405180910390fd5b805181602001fd5b63150b7a0260e01b7bffffffffffffffffffffffffffffffffffffffffffffffffffffffff1916817bffffffffffffffffffffffffffffffffffffffffffffffffffffffff191614915050612144565b600190505b949350505050565b61215683836121ba565b6121636000848484611fb5565b6121a2576040517f08c379a000000000000000000000000000000000000000000000000000000000815260040161219990613479565b60405180910390fd5b505050565b600080823b905060008111915050919050565b600073ffffffffffffffffffffffffffffffffffffffff168273ffffffffffffffffffffffffffffffffffffffff16141561222a576040517f08c379a000000000000000000000000000000000000000000000000000000000815260040161222190613599565b60405180910390fd5b612233816113a6565b15612273576040517f08c379a000000000000000000000000000000000000000000000000000000000815260040161226a90613499565b60405180910390fd5b61227f60008383611fb0565b6001600360008473ffffffffffffffffffffffffffffffffffffffff1673ffffffffffffffffffffffffffffffffffffffff16815260200190815260200160002060008282546122cf919061374d565b92505081905550816002600083815260200190815260200160002060006101000a81548173ffffffffffffffffffffffffffffffffffffffff021916908373ffffffffffffffffffffffffffffffffffffffff160217905550808273ffffffffffffffffffffffffffffffffffffffff16600073ffffffffffffffffffffffffffffffffffffffff167fddf252ad1be2c89b69c2b068fc378daa952ba7f163c4a11628f55a4df523b3ef60405160405180910390a45050565b82805461239490613918565b90600052602060002090601f0160209004810192826123b657600085556123fd565b82601f106123cf57805160ff19168380011785556123fd565b828001600101855582156123fd579182015b828111156123fc5782518255916020019190600101906123e1565b5b50905061240a919061240e565b5090565b5b8082111561242757600081600090555060010161240f565b5090565b600061243e612439846136c5565b613694565b90508281526020810184848401111561245657600080fd5b6124618482856138d6565b509392505050565b60008135905061247881613a9b565b92915050565b60008135905061248d81613ab2565b92915050565b6000813590506124a281613ac9565b92915050565b6000815190506124b781613ac9565b92915050565b600082601f8301126124ce57600080fd5b81356124de84826020860161242b565b91505092915050565b6000813590506124f681613ae0565b92915050565b60006020828403121561250e57600080fd5b600061251c84828501612469565b91505092915050565b6000806040838503121561253857600080fd5b600061254685828601612469565b925050602061255785828601612469565b9150509250929050565b60008060006060848603121561257657600080fd5b600061258486828701612469565b935050602061259586828701612469565b92505060406125a6868287016124e7565b9150509250925092565b600080600080608085870312156125c657600080fd5b60006125d487828801612469565b94505060206125e587828801612469565b93505060406125f6878288016124e7565b925050606085013567ffffffffffffffff81111561261357600080fd5b61261f878288016124bd565b91505092959194509250565b6000806040838503121561263e57600080fd5b600061264c85828601612469565b925050602061265d8582860161247e565b9150509250929050565b6000806040838503121561267a57600080fd5b600061268885828601612469565b9250506020612699858286016124e7565b9150509250929050565b6000602082840312156126b557600080fd5b60006126c384828501612493565b91505092915050565b6000602082840312156126de57600080fd5b60006126ec848285016124a8565b91505092915050565b60006020828403121561270757600080fd5b6000612715848285016124e7565b91505092915050565b61272781613862565b82525050565b61273681613874565b82525050565b60006127478261370a565b6127518185613720565b93506127618185602086016138e5565b61276a81613a8a565b840191505092915050565b600061278082613715565b61278a8185613731565b935061279a8185602086016138e5565b6127a381613a8a565b840191505092915050565b60006127b982613715565b6127c38185613742565b93506127d38185602086016138e5565b80840191505092915050565b600081546127ec81613918565b6127f68186613742565b94506001821660008114612811576001811461282257612855565b60ff19831686528186019350612855565b61282b856136f5565b60005b8381101561284d5781548189015260018201915060208101905061282e565b838801955050505b50505092915050565b600061286b602583613742565b91507f68747470733a2f2f6e6674707265766965772e30786465762e636f6465732f3f60008301527f636f64653d0000000000000000000000000000000000000000000000000000006020830152602582019050919050565b60006128d1603283613731565b91507f4552433732313a207472616e7366657220746f206e6f6e20455243373231526560008301527f63656976657220696d706c656d656e74657200000000000000000000000000006020830152604082019050919050565b6000612937604483613742565b91507f222c20226465736372697074696f6e223a2022544654204865726f6573222c2060008301527f22696d616765223a2022646174613a696d6167652f7376672b786d6c3b62617360208301527f6536342c000000000000000000000000000000000000000000000000000000006040830152604482019050919050565b60006129c3601c83613731565b91507f4552433732313a20746f6b656e20616c7265616479206d696e746564000000006000830152602082019050919050565b6000612a03600a83613742565b91507f54484952445f574f5244000000000000000000000000000000000000000000006000830152600a82019050919050565b6000612a43602483613731565b91507f4552433732313a207472616e7366657220746f20746865207a65726f2061646460008301527f72657373000000000000000000000000000000000000000000000000000000006020830152604082019050919050565b6000612aa9601983613731565b91507f4552433732313a20617070726f766520746f2063616c6c6572000000000000006000830152602082019050919050565b6000612ae9600b83613742565b91507f5345434f4e445f574f52440000000000000000000000000000000000000000006000830152600b82019050919050565b6000612b29602c83613731565b91507f4552433732313a206f70657261746f7220717565727920666f72206e6f6e657860008301527f697374656e7420746f6b656e00000000000000000000000000000000000000006020830152604082019050919050565b6000612b8f600d83613742565b91507f3c2f746578743e3c2f7376673e000000000000000000000000000000000000006000830152600d82019050919050565b6000612bcf603883613731565b91507f4552433732313a20617070726f76652063616c6c6572206973206e6f74206f7760008301527f6e6572206e6f7220617070726f76656420666f7220616c6c00000000000000006020830152604082019050919050565b6000612c35602a83613731565b91507f4552433732313a2062616c616e636520717565727920666f7220746865207a6560008301527f726f2061646472657373000000000000000000000000000000000000000000006020830152604082019050919050565b6000612c9b602983613731565b91507f4552433732313a206f776e657220717565727920666f72206e6f6e657869737460008301527f656e7420746f6b656e00000000000000000000000000000000000000000000006020830152604082019050919050565b6000612d01602e83613731565b91507f45524337323155524953746f726167653a2055524920736574206f66206e6f6e60008301527f6578697374656e7420746f6b656e0000000000000000000000000000000000006020830152604082019050919050565b6000612d67600283613742565b91507f227d0000000000000000000000000000000000000000000000000000000000006000830152600282019050919050565b6000612da7602083613731565b91507f4552433732313a206d696e7420746f20746865207a65726f20616464726573736000830152602082019050919050565b6000612de7603183613731565b91507f45524337323155524953746f726167653a2055524920717565727920666f722060008301527f6e6f6e6578697374656e7420746f6b656e0000000000000000000000000000006020830152604082019050919050565b6000612e4d602c83613731565b91507f4552433732313a20617070726f76656420717565727920666f72206e6f6e657860008301527f697374656e7420746f6b656e00000000000000000000000000000000000000006020830152604082019050919050565b6000612eb3602983613731565b91507f4552433732313a207472616e73666572206f6620746f6b656e2074686174206960008301527f73206e6f74206f776e00000000000000000000000000000000000000000000006020830152604082019050919050565b6000612f19602f83613731565b91507f4552433732314d657461646174613a2055524920717565727920666f72206e6f60008301527f6e6578697374656e7420746f6b656e00000000000000000000000000000000006020830152604082019050919050565b6000612f7f600a83613742565b91507f7b226e616d65223a2022000000000000000000000000000000000000000000006000830152600a82019050919050565b6000612fbf602183613731565b91507f4552433732313a20617070726f76616c20746f2063757272656e74206f776e6560008301527f72000000000000000000000000000000000000000000000000000000000000006020830152604082019050919050565b6000613025600a83613742565b91507f46495253545f574f5244000000000000000000000000000000000000000000006000830152600a82019050919050565b6000613065601d83613742565b91507f646174613a6170706c69636174696f6e2f6a736f6e3b6261736536342c0000006000830152601d82019050919050565b60006130a5603183613731565b91507f4552433732313a207472616e736665722063616c6c6572206973206e6f74206f60008301527f776e6572206e6f7220617070726f7665640000000000000000000000000000006020830152604082019050919050565b600061310b600583613742565b91507f434f4c4f520000000000000000000000000000000000000000000000000000006000830152600582019050919050565b613147816138cc565b82525050565b61315e613159826138cc565b613993565b82525050565b600061317082846127ae565b915081905092915050565b600061318782856127ae565b915061319382846127ae565b91508190509392505050565b60006131ab82866127ae565b91506131b782856127ae565b91506131c382846127ae565b9150819050949350505050565b60006131dc82876127df565b91506131e882866127ae565b91506131f482856127df565b915061320082846127ae565b915061320b82612b82565b915081905095945050505050565b60006132248261285e565b915061323082846127ae565b915081905092915050565b6000613246826129f6565b9150613252828561314d565b60208201915061326282846127ae565b91508190509392505050565b600061327982612adc565b9150613285828561314d565b60208201915061329582846127ae565b91508190509392505050565b60006132ac82612f72565b91506132b882856127ae565b91506132c38261292a565b91506132cf82846127ae565b91506132da82612d5a565b91508190509392505050565b60006132f182613018565b91506132fd828561314d565b60208201915061330d82846127ae565b91508190509392505050565b600061332482613058565b915061333082846127ae565b915081905092915050565b6000613346826130fe565b9150613352828561314d565b60208201915061336282846127ae565b91508190509392505050565b6000602082019050613383600083018461271e565b92915050565b600060808201905061339e600083018761271e565b6133ab602083018661271e565b6133b8604083018561313e565b81810360608301526133ca818461273c565b905095945050505050565b60006040820190506133ea600083018561271e565b6133f7602083018461313e565b9392505050565b6000602082019050613413600083018461272d565b92915050565b600060208201905081810360008301526134338184612775565b905092915050565b600060608201905081810360008301526134558186612775565b9050613464602083018561313e565b613471604083018461271e565b949350505050565b60006020820190508181036000830152613492816128c4565b9050919050565b600060208201905081810360008301526134b2816129b6565b9050919050565b600060208201905081810360008301526134d281612a36565b9050919050565b600060208201905081810360008301526134f281612a9c565b9050919050565b6000602082019050818103600083015261351281612b1c565b9050919050565b6000602082019050818103600083015261353281612bc2565b9050919050565b6000602082019050818103600083015261355281612c28565b9050919050565b6000602082019050818103600083015261357281612c8e565b9050919050565b6000602082019050818103600083015261359281612cf4565b9050919050565b600060208201905081810360008301526135b281612d9a565b9050919050565b600060208201905081810360008301526135d281612dda565b9050919050565b600060208201905081810360008301526135f281612e40565b9050919050565b6000602082019050818103600083015261361281612ea6565b9050919050565b6000602082019050818103600083015261363281612f0c565b9050919050565b6000602082019050818103600083015261365281612fb2565b9050919050565b6000602082019050818103600083015261367281613098565b9050919050565b600060208201905061368e600083018461313e565b92915050565b6000604051905081810181811067ffffffffffffffff821117156136bb576136ba613a5b565b5b8060405250919050565b600067ffffffffffffffff8211156136e0576136df613a5b565b5b601f19601f8301169050602081019050919050565b60008190508160005260206000209050919050565b600081519050919050565b600081519050919050565b600082825260208201905092915050565b600082825260208201905092915050565b600081905092915050565b6000613758826138cc565b9150613763836138cc565b9250827fffffffffffffffffffffffffffffffffffffffffffffffffffffffffffffffff03821115613798576137976139ce565b5b828201905092915050565b60006137ae826138cc565b91506137b9836138cc565b9250826137c9576137c86139fd565b5b828204905092915050565b60006137df826138cc565b91506137ea836138cc565b9250817fffffffffffffffffffffffffffffffffffffffffffffffffffffffffffffffff0483118215151615613823576138226139ce565b5b828202905092915050565b6000613839826138cc565b9150613844836138cc565b925082821015613857576138566139ce565b5b828203905092915050565b600061386d826138ac565b9050919050565b60008115159050919050565b60007fffffffff0000000000000000000000000000000000000000000000000000000082169050919050565b600073ffffffffffffffffffffffffffffffffffffffff82169050919050565b6000819050919050565b82818337600083830152505050565b60005b838110156139035780820151818401526020810190506138e8565b83811115613912576000848401525b50505050565b6000600282049050600182168061393057607f821691505b6020821081141561394457613943613a2c565b5b50919050565b6000613955826138cc565b91507fffffffffffffffffffffffffffffffffffffffffffffffffffffffffffffffff821415613988576139876139ce565b5b600182019050919050565b6000819050919050565b60006139a8826138cc565b91506139b3836138cc565b9250826139c3576139c26139fd565b5b828206905092915050565b7f4e487b7100000000000000000000000000000000000000000000000000000000600052601160045260246000fd5b7f4e487b7100000000000000000000000000000000000000000000000000000000600052601260045260246000fd5b7f4e487b7100000000000000000000000000000000000000000000000000000000600052602260045260246000fd5b7f4e487b7100000000000000000000000000000000000000000000000000000000600052604160045260246000fd5b6000601f19601f8301169050919050565b613aa481613862565b8114613aaf57600080fd5b50565b613abb81613874565b8114613ac657600080fd5b50565b613ad281613880565b8114613add57600080fd5b50565b613ae9816138cc565b8114613af457600080fd5b5056fe416e204e465420772f20494420257320686173206265656e206d696e74656420746f2025734142434445464748494a4b4c4d4e4f505152535455565758595a6162636465666768696a6b6c6d6e6f707172737475767778797a303132333435363738392b2fa2646970667358221220877f6eb6effd680ed99fa746c505262879888304148a68d77f8ded82f8e410c464736f6c634300080000333c73766720786d6c6e733d27687474703a2f2f7777772e77332e6f72672f323030302f73766727207072657365727665417370656374526174696f3d27784d696e594d696e206d656574272076696577426f783d273020302033353020333530273e3c7374796c653e2e62617365207b2066696c6c3a2077686974653b20666f6e742d66616d696c793a2073657269663b20666f6e742d73697a653a20323470783b207d3c2f7374796c653e3c726563742077696474683d273130302527206865696768743d2731303025272066696c6c3d27272f3e3c7465787420783d273530252720793d273530252720636c6173733d27626173652720646f6d696e616e742d626173656c696e653d276d6964646c652720746578742d616e63686f723d276d6964646c65273e",
  "linkReferences": {},
  "deployedLinkReferences": {}
}